{
  "_format": "hh-sol-artifact-1",
  "contractName": "ScratchLotteryV2",
  "sourceName": "contracts/Lottery.sol",
  "abi": [
    {
      "inputs": [],
      "stateMutability": "nonpayable",
      "type": "constructor"
    },
    {
      "inputs": [
        {
          "internalType": "address",
          "name": "owner",
          "type": "address"
        }
      ],
      "name": "OwnableInvalidOwner",
      "type": "error"
    },
    {
      "inputs": [
        {
          "internalType": "address",
          "name": "account",
          "type": "address"
        }
      ],
      "name": "OwnableUnauthorizedAccount",
      "type": "error"
    },
    {
      "inputs": [],
      "name": "ReentrancyGuardReentrantCall",
      "type": "error"
    },
    {
      "anonymous": false,
      "inputs": [
        {
          "indexed": true,
          "internalType": "address",
          "name": "previousOwner",
          "type": "address"
        },
        {
          "indexed": true,
          "internalType": "address",
          "name": "newOwner",
          "type": "address"
        }
      ],
      "name": "OwnershipTransferred",
      "type": "event"
    },
    {
      "anonymous": false,
      "inputs": [
        {
          "indexed": true,
          "internalType": "address",
          "name": "player",
          "type": "address"
        },
        {
          "indexed": false,
          "internalType": "uint8",
          "name": "prizeTier",
          "type": "uint8"
        },
        {
          "indexed": false,
          "internalType": "uint256",
          "name": "amount",
          "type": "uint256"
        },
        {
          "indexed": false,
          "internalType": "bytes32",
          "name": "txHashUsed",
          "type": "bytes32"
        }
      ],
      "name": "Play",
      "type": "event"
    },
    {
      "anonymous": false,
      "inputs": [
        {
          "indexed": true,
          "internalType": "address",
          "name": "from",
          "type": "address"
        },
        {
          "indexed": false,
          "internalType": "uint256",
          "name": "amount",
          "type": "uint256"
        }
      ],
      "name": "Refill",
      "type": "event"
    },
    {
      "anonymous": false,
      "inputs": [
        {
          "indexed": true,
          "internalType": "address",
          "name": "to",
          "type": "address"
        },
        {
          "indexed": false,
          "internalType": "uint256",
          "name": "amount",
          "type": "uint256"
        }
      ],
      "name": "Withdraw",
      "type": "event"
    },
    {
      "inputs": [],
      "name": "DENOM",
      "outputs": [
        {
          "internalType": "uint256",
          "name": "",
          "type": "uint256"
        }
      ],
      "stateMutability": "view",
      "type": "function"
    },
    {
      "inputs": [],
      "name": "FEE",
      "outputs": [
        {
          "internalType": "uint256",
          "name": "",
          "type": "uint256"
        }
      ],
      "stateMutability": "view",
      "type": "function"
    },
    {
      "inputs": [],
      "name": "MAX_PLAY",
      "outputs": [
        {
          "internalType": "uint8",
          "name": "",
          "type": "uint8"
        }
      ],
      "stateMutability": "view",
      "type": "function"
    },
    {
      "inputs": [
        {
          "internalType": "address",
          "name": "",
          "type": "address"
        }
      ],
      "name": "lastPlayedDay",
      "outputs": [
        {
          "internalType": "uint256",
          "name": "",
          "type": "uint256"
        }
      ],
      "stateMutability": "view",
      "type": "function"
    },
    {
      "inputs": [],
      "name": "owner",
      "outputs": [
        {
          "internalType": "address",
          "name": "",
          "type": "address"
        }
      ],
      "stateMutability": "view",
      "type": "function"
    },
    {
      "inputs": [],
      "name": "play",
      "outputs": [],
      "stateMutability": "payable",
      "type": "function"
    },
    {
      "inputs": [
        {
          "internalType": "address",
          "name": "",
          "type": "address"
        }
      ],
      "name": "playedToday",
      "outputs": [
        {
          "internalType": "uint8",
          "name": "",
          "type": "uint8"
        }
      ],
      "stateMutability": "view",
      "type": "function"
    },
    {
      "inputs": [
        {
          "internalType": "uint8",
          "name": "",
          "type": "uint8"
        }
      ],
      "name": "prizes",
      "outputs": [
        {
          "internalType": "uint256",
          "name": "amount",
          "type": "uint256"
        },
        {
          "internalType": "uint16",
          "name": "left",
          "type": "uint16"
        },
        {
          "internalType": "uint16",
          "name": "total",
          "type": "uint16"
        },
        {
          "internalType": "uint16",
          "name": "probability",
          "type": "uint16"
        }
      ],
      "stateMutability": "view",
      "type": "function"
    },
    {
      "inputs": [],
      "name": "refill",
      "outputs": [],
      "stateMutability": "payable",
      "type": "function"
    },
    {
      "inputs": [],
      "name": "renounceOwnership",
      "outputs": [],
      "stateMutability": "nonpayable",
      "type": "function"
    },
    {
      "inputs": [
        {
          "internalType": "uint8",
          "name": "tier",
          "type": "uint8"
        },
        {
          "internalType": "uint256",
          "name": "amount",
          "type": "uint256"
        },
        {
          "internalType": "uint16",
          "name": "left",
          "type": "uint16"
        },
        {
          "internalType": "uint16",
          "name": "prob",
          "type": "uint16"
        }
      ],
      "name": "setPrize",
      "outputs": [],
      "stateMutability": "nonpayable",
      "type": "function"
    },
    {
      "inputs": [
        {
          "internalType": "address",
          "name": "newOwner",
          "type": "address"
        }
      ],
      "name": "transferOwnership",
      "outputs": [],
      "stateMutability": "nonpayable",
      "type": "function"
    },
    {
      "inputs": [
        {
          "internalType": "uint256",
          "name": "amount",
          "type": "uint256"
        }
      ],
      "name": "withdraw",
      "outputs": [],
      "stateMutability": "nonpayable",
      "type": "function"
    },
    {
      "stateMutability": "payable",
      "type": "receive"
    }
  ],
  "bytecode": "0x60806040523480156200001157600080fd5b5033600073ffffffffffffffffffffffffffffffffffffffff168173ffffffffffffffffffffffffffffffffffffffff1603620000885760006040517f1e4fbdf70000000000000000000000000000000000000000000000000000000081526004016200007f91906200070e565b60405180910390fd5b62000099816200060560201b60201c565b50600180819055506040518060800160405280662386f26fc1000081526020016103e861ffff1681526020016103e861ffff1681526020016109c461ffff16815250600260008060ff1681526020019081526020016000206000820151816000015560208201518160010160006101000a81548161ffff021916908361ffff16021790555060408201518160010160026101000a81548161ffff021916908361ffff16021790555060608201518160010160046101000a81548161ffff021916908361ffff160217905550905050604051806080016040528066470de4df82000081526020016101f461ffff1681526020016101f461ffff1681526020016104b061ffff1681525060026000600160ff1681526020019081526020016000206000820151816000015560208201518160010160006101000a81548161ffff021916908361ffff16021790555060408201518160010160026101000a81548161ffff021916908361ffff16021790555060608201518160010160046101000a81548161ffff021916908361ffff160217905550905050604051806080016040528066b1a2bc2ec500008152602001606461ffff168152602001606461ffff16815260200161025861ffff1681525060026000600260ff1681526020019081526020016000206000820151816000015560208201518160010160006101000a81548161ffff021916908361ffff16021790555060408201518160010160026101000a81548161ffff021916908361ffff16021790555060608201518160010160046101000a81548161ffff021916908361ffff160217905550905050604051806080016040528067016345785d8a00008152602001601461ffff168152602001601461ffff168152602001607861ffff1681525060026000600360ff1681526020019081526020016000206000820151816000015560208201518160010160006101000a81548161ffff021916908361ffff16021790555060408201518160010160026101000a81548161ffff021916908361ffff16021790555060608201518160010160046101000a81548161ffff021916908361ffff16021790555090505060405180608001604052806702c68af0bb1400008152602001600a61ffff168152602001600a61ffff168152602001603c61ffff1681525060026000600460ff1681526020019081526020016000206000820151816000015560208201518160010160006101000a81548161ffff021916908361ffff16021790555060408201518160010160026101000a81548161ffff021916908361ffff16021790555060608201518160010160046101000a81548161ffff021916908361ffff1602179055509050506040518060800160405280670de0b6b3a76400008152602001600161ffff168152602001600161ffff168152602001600661ffff1681525060026000600560ff1681526020019081526020016000206000820151816000015560208201518160010160006101000a81548161ffff021916908361ffff16021790555060408201518160010160026101000a81548161ffff021916908361ffff16021790555060608201518160010160046101000a81548161ffff021916908361ffff16021790555090505060405180608001604052806000815260200161ffff8016815260200161ffff801681526020016111a061ffff1681525060026000600660ff1681526020019081526020016000206000820151816000015560208201518160010160006101000a81548161ffff021916908361ffff16021790555060408201518160010160026101000a81548161ffff021916908361ffff16021790555060608201518160010160046101000a81548161ffff021916908361ffff1602179055509050506200072b565b60008060009054906101000a900473ffffffffffffffffffffffffffffffffffffffff169050816000806101000a81548173ffffffffffffffffffffffffffffffffffffffff021916908373ffffffffffffffffffffffffffffffffffffffff1602179055508173ffffffffffffffffffffffffffffffffffffffff168173ffffffffffffffffffffffffffffffffffffffff167f8be0079c531659141344cd1fd0a4f28419497f9722a3daafe3b4186f6b6457e060405160405180910390a35050565b600073ffffffffffffffffffffffffffffffffffffffff82169050919050565b6000620006f682620006c9565b9050919050565b6200070881620006e9565b82525050565b6000602082019050620007256000830184620006fd565b92915050565b611550806200073b6000396000f3fe6080604052600436106100c65760003560e01c80638da5cb5b1161007f578063b8cfa6bd11610059578063b8cfa6bd14610221578063c57981b51461024a578063e1cc41cf14610275578063f2fde38b146102b5576100cd565b80638da5cb5b146101af57806393e84cd9146101da578063979e27a1146101e4576100cd565b806316343da4146100d25780632e1a7d4d146100fd57806336f7588614610126578063538e0759146101635780636bb7f7d61461016d578063715018a614610198576100cd565b366100cd57005b600080fd5b3480156100de57600080fd5b506100e76102de565b6040516100f49190610db6565b60405180910390f35b34801561010957600080fd5b50610124600480360381019061011f9190610e02565b6102e4565b005b34801561013257600080fd5b5061014d60048036038101906101489190610e8d565b6103f8565b60405161015a9190610ed6565b60405180910390f35b61016b610418565b005b34801561017957600080fd5b50610182610470565b60405161018f9190610ed6565b60405180910390f35b3480156101a457600080fd5b506101ad610475565b005b3480156101bb57600080fd5b506101c4610489565b6040516101d19190610f00565b60405180910390f35b6101e26104b2565b005b3480156101f057600080fd5b5061020b60048036038101906102069190610e8d565b6109c7565b6040516102189190610db6565b60405180910390f35b34801561022d57600080fd5b5061024860048036038101906102439190610f81565b6109df565b005b34801561025657600080fd5b5061025f610afa565b60405161026c9190610db6565b60405180910390f35b34801561028157600080fd5b5061029c60048036038101906102979190610fe8565b610b05565b6040516102ac9493929190611024565b60405180910390f35b3480156102c157600080fd5b506102dc60048036038101906102d79190610e8d565b610b5f565b005b61271081565b6102ec610be5565b60006102f6610489565b73ffffffffffffffffffffffffffffffffffffffff16826040516103199061109a565b60006040518083038185875af1925050503d8060008114610356576040519150601f19603f3d011682016040523d82523d6000602084013e61035b565b606091505b505090508061039f576040517f08c379a00000000000000000000000000000000000000000000000000000000081526004016103969061110c565b60405180910390fd5b6103a7610489565b73ffffffffffffffffffffffffffffffffffffffff167f884edad9ce6fa2440d8a54cc123490eb96d2768479d49ff9c7366125a9424364836040516103ec9190610db6565b60405180910390a25050565b60036020528060005260406000206000915054906101000a900460ff1681565b610420610be5565b3373ffffffffffffffffffffffffffffffffffffffff167f5466efde3f6b866c1103aefb7dcd4d0ed7d35437128ee5fcd44762b00cd514b0346040516104669190610db6565b60405180910390a2565b601e81565b61047d610be5565b6104876000610c6c565b565b60008060009054906101000a900473ffffffffffffffffffffffffffffffffffffffff16905090565b6104ba610d30565b662386f26fc100003414610503576040517f08c379a00000000000000000000000000000000000000000000000000000000081526004016104fa90611178565b60405180910390fd5b600061050d610d76565b905080600460003373ffffffffffffffffffffffffffffffffffffffff1673ffffffffffffffffffffffffffffffffffffffff1681526020019081526020016000205410156105f4576000600360003373ffffffffffffffffffffffffffffffffffffffff1673ffffffffffffffffffffffffffffffffffffffff16815260200190815260200160002060006101000a81548160ff021916908360ff16021790555080600460003373ffffffffffffffffffffffffffffffffffffffff1673ffffffffffffffffffffffffffffffffffffffff168152602001908152602001600020819055505b601e60ff16600360003373ffffffffffffffffffffffffffffffffffffffff1673ffffffffffffffffffffffffffffffffffffffff16815260200190815260200160002060009054906101000a900460ff1660ff1610610689576040517f08c379a0000000000000000000000000000000000000000000000000000000008152600401610680906111e4565b60405180910390fd5b600060f03342326040516020016106a29392919061126d565b6040516020818303038152906040528051906020012060001c901c63ffffffff1660001b905060006127108260001c6106db91906112d9565b90506000600690506000805b60068160ff16101561079057600260008260ff1660ff16815260200190815260200160002060010160049054906101000a900461ffff16826107299190611339565b91508161ffff168461ffff1610801561077057506000600260008360ff1660ff16815260200190815260200160002060010160009054906101000a900461ffff1661ffff16115b1561077d57809250610790565b80806107889061136f565b9150506106e7565b5060068260ff1610156108c257600260008360ff1660ff168152602001908152602001600020600101600081819054906101000a900461ffff16809291906107d790611398565b91906101000a81548161ffff021916908361ffff160217905550506000600260008460ff1660ff16815260200190815260200160002060000154905060003373ffffffffffffffffffffffffffffffffffffffff16826040516108399061109a565b60006040518083038185875af1925050503d8060008114610876576040519150601f19603f3d011682016040523d82523d6000602084013e61087b565b606091505b50509050806108bf576040517f08c379a00000000000000000000000000000000000000000000000000000000081526004016108b69061140d565b60405180910390fd5b50505b600360003373ffffffffffffffffffffffffffffffffffffffff1673ffffffffffffffffffffffffffffffffffffffff168152602001908152602001600020600081819054906101000a900460ff168092919061091e9061136f565b91906101000a81548160ff021916908360ff160217905550503373ffffffffffffffffffffffffffffffffffffffff167f88e0337a6f994c57352673563528c067ef24b0ac6653e2cefe26737ee85ea93b8360068560ff161461099d57600260008660ff1660ff168152602001908152602001600020600001546109a0565b60005b876040516109b093929190611446565b60405180910390a250505050506109c5610d8c565b565b60046020528060005260406000206000915090505481565b6109e7610be5565b60068460ff161115610a2e576040517f08c379a0000000000000000000000000000000000000000000000000000000008152600401610a25906114c9565b60405180910390fd5b82600260008660ff1660ff1681526020019081526020016000206000018190555081600260008660ff1660ff16815260200190815260200160002060010160006101000a81548161ffff021916908361ffff16021790555081600260008660ff1660ff16815260200190815260200160002060010160026101000a81548161ffff021916908361ffff16021790555080600260008660ff1660ff16815260200190815260200160002060010160046101000a81548161ffff021916908361ffff16021790555050505050565b662386f26fc1000081565b60026020528060005260406000206000915090508060000154908060010160009054906101000a900461ffff16908060010160029054906101000a900461ffff16908060010160049054906101000a900461ffff16905084565b610b67610be5565b600073ffffffffffffffffffffffffffffffffffffffff168173ffffffffffffffffffffffffffffffffffffffff1603610bd95760006040517f1e4fbdf7000000000000000000000000000000000000000000000000000000008152600401610bd09190610f00565b60405180910390fd5b610be281610c6c565b50565b610bed610d95565b73ffffffffffffffffffffffffffffffffffffffff16610c0b610489565b73ffffffffffffffffffffffffffffffffffffffff1614610c6a57610c2e610d95565b6040517f118cdaa7000000000000000000000000000000000000000000000000000000008152600401610c619190610f00565b60405180910390fd5b565b60008060009054906101000a900473ffffffffffffffffffffffffffffffffffffffff169050816000806101000a81548173ffffffffffffffffffffffffffffffffffffffff021916908373ffffffffffffffffffffffffffffffffffffffff1602179055508173ffffffffffffffffffffffffffffffffffffffff168173ffffffffffffffffffffffffffffffffffffffff167f8be0079c531659141344cd1fd0a4f28419497f9722a3daafe3b4186f6b6457e060405160405180910390a35050565b600260015403610d6c576040517f3ee5aeb500000000000000000000000000000000000000000000000000000000815260040160405180910390fd5b6002600181905550565b60006201518042610d8791906114e9565b905090565b60018081905550565b600033905090565b6000819050919050565b610db081610d9d565b82525050565b6000602082019050610dcb6000830184610da7565b92915050565b600080fd5b610ddf81610d9d565b8114610dea57600080fd5b50565b600081359050610dfc81610dd6565b92915050565b600060208284031215610e1857610e17610dd1565b5b6000610e2684828501610ded565b91505092915050565b600073ffffffffffffffffffffffffffffffffffffffff82169050919050565b6000610e5a82610e2f565b9050919050565b610e6a81610e4f565b8114610e7557600080fd5b50565b600081359050610e8781610e61565b92915050565b600060208284031215610ea357610ea2610dd1565b5b6000610eb184828501610e78565b91505092915050565b600060ff82169050919050565b610ed081610eba565b82525050565b6000602082019050610eeb6000830184610ec7565b92915050565b610efa81610e4f565b82525050565b6000602082019050610f156000830184610ef1565b92915050565b610f2481610eba565b8114610f2f57600080fd5b50565b600081359050610f4181610f1b565b92915050565b600061ffff82169050919050565b610f5e81610f47565b8114610f6957600080fd5b50565b600081359050610f7b81610f55565b92915050565b60008060008060808587031215610f9b57610f9a610dd1565b5b6000610fa987828801610f32565b9450506020610fba87828801610ded565b9350506040610fcb87828801610f6c565b9250506060610fdc87828801610f6c565b91505092959194509250565b600060208284031215610ffe57610ffd610dd1565b5b600061100c84828501610f32565b91505092915050565b61101e81610f47565b82525050565b60006080820190506110396000830187610da7565b6110466020830186611015565b6110536040830185611015565b6110606060830184611015565b95945050505050565b600081905092915050565b50565b6000611084600083611069565b915061108f82611074565b600082019050919050565b60006110a582611077565b9150819050919050565b600082825260208201905092915050565b7f5769746864726177206661696c00000000000000000000000000000000000000600082015250565b60006110f6600d836110af565b9150611101826110c0565b602082019050919050565b60006020820190508181036000830152611125816110e9565b9050919050565b7f4261642066656500000000000000000000000000000000000000000000000000600082015250565b60006111626007836110af565b915061116d8261112c565b602082019050919050565b6000602082019050818103600083015261119181611155565b9050919050565b7f4e6f206368616e6365206c656674000000000000000000000000000000000000600082015250565b60006111ce600e836110af565b91506111d982611198565b602082019050919050565b600060208201905081810360008301526111fd816111c1565b9050919050565b60008160601b9050919050565b600061121c82611204565b9050919050565b600061122e82611211565b9050919050565b61124661124182610e4f565b611223565b82525050565b6000819050919050565b61126761126282610d9d565b61124c565b82525050565b60006112798286611235565b6014820191506112898285611256565b6020820191506112998284611235565b601482019150819050949350505050565b7f4e487b7100000000000000000000000000000000000000000000000000000000600052601260045260246000fd5b60006112e482610d9d565b91506112ef83610d9d565b9250826112ff576112fe6112aa565b5b828206905092915050565b7f4e487b7100000000000000000000000000000000000000000000000000000000600052601160045260246000fd5b600061134482610f47565b915061134f83610f47565b9250828201905061ffff8111156113695761136861130a565b5b92915050565b600061137a82610eba565b915060ff820361138d5761138c61130a565b5b600182019050919050565b60006113a382610f47565b9150600082036113b6576113b561130a565b5b600182039050919050565b7f53656e64206661696c0000000000000000000000000000000000000000000000600082015250565b60006113f76009836110af565b9150611402826113c1565b602082019050919050565b60006020820190508181036000830152611426816113ea565b9050919050565b6000819050919050565b6114408161142d565b82525050565b600060608201905061145b6000830186610ec7565b6114686020830185610da7565b6114756040830184611437565b949350505050565b7f4261642074696572000000000000000000000000000000000000000000000000600082015250565b60006114b36008836110af565b91506114be8261147d565b602082019050919050565b600060208201905081810360008301526114e2816114a6565b9050919050565b60006114f482610d9d565b91506114ff83610d9d565b92508261150f5761150e6112aa565b5b82820490509291505056fea2646970667358221220611e48b9f1cff0a080c9dffd1af42700ccc2b7d6c93b02dcec50ecdf14850a1264736f6c63430008140033",
  "linkReferences": {},
  "deployedLinkReferences": {}
}